{
  "contractName": "MyNFTs",
  "abi": [
    {
      "inputs": [],
      "stateMutability": "nonpayable",
      "type": "constructor"
    },
    {
      "anonymous": false,
      "inputs": [
        {
          "indexed": true,
          "internalType": "address",
          "name": "owner",
          "type": "address"
        },
        {
          "indexed": true,
          "internalType": "address",
          "name": "approved",
          "type": "address"
        },
        {
          "indexed": true,
          "internalType": "uint256",
          "name": "tokenId",
          "type": "uint256"
        }
      ],
      "name": "Approval",
      "type": "event"
    },
    {
      "anonymous": false,
      "inputs": [
        {
          "indexed": true,
          "internalType": "address",
          "name": "owner",
          "type": "address"
        },
        {
          "indexed": true,
          "internalType": "address",
          "name": "operator",
          "type": "address"
        },
        {
          "indexed": false,
          "internalType": "bool",
          "name": "approved",
          "type": "bool"
        }
      ],
      "name": "ApprovalForAll",
      "type": "event"
    },
    {
      "anonymous": false,
      "inputs": [
        {
          "indexed": true,
          "internalType": "address",
          "name": "previousOwner",
          "type": "address"
        },
        {
          "indexed": true,
          "internalType": "address",
          "name": "newOwner",
          "type": "address"
        }
      ],
      "name": "OwnershipTransferred",
      "type": "event"
    },
    {
      "anonymous": false,
      "inputs": [
        {
          "indexed": true,
          "internalType": "address",
          "name": "from",
          "type": "address"
        },
        {
          "indexed": true,
          "internalType": "address",
          "name": "to",
          "type": "address"
        },
        {
          "indexed": true,
          "internalType": "uint256",
          "name": "tokenId",
          "type": "uint256"
        }
      ],
      "name": "Transfer",
      "type": "event"
    },
    {
      "inputs": [
        {
          "internalType": "address",
          "name": "to",
          "type": "address"
        },
        {
          "internalType": "uint256",
          "name": "tokenId",
          "type": "uint256"
        }
      ],
      "name": "approve",
      "outputs": [],
      "stateMutability": "nonpayable",
      "type": "function"
    },
    {
      "inputs": [
        {
          "internalType": "address",
          "name": "owner",
          "type": "address"
        }
      ],
      "name": "balanceOf",
      "outputs": [
        {
          "internalType": "uint256",
          "name": "",
          "type": "uint256"
        }
      ],
      "stateMutability": "view",
      "type": "function",
      "constant": true
    },
    {
      "inputs": [
        {
          "internalType": "uint256",
          "name": "tokenId",
          "type": "uint256"
        }
      ],
      "name": "getApproved",
      "outputs": [
        {
          "internalType": "address",
          "name": "",
          "type": "address"
        }
      ],
      "stateMutability": "view",
      "type": "function",
      "constant": true
    },
    {
      "inputs": [
        {
          "internalType": "address",
          "name": "owner",
          "type": "address"
        },
        {
          "internalType": "address",
          "name": "operator",
          "type": "address"
        }
      ],
      "name": "isApprovedForAll",
      "outputs": [
        {
          "internalType": "bool",
          "name": "",
          "type": "bool"
        }
      ],
      "stateMutability": "view",
      "type": "function",
      "constant": true
    },
    {
      "inputs": [],
      "name": "name",
      "outputs": [
        {
          "internalType": "string",
          "name": "",
          "type": "string"
        }
      ],
      "stateMutability": "view",
      "type": "function",
      "constant": true
    },
    {
      "inputs": [],
      "name": "owner",
      "outputs": [
        {
          "internalType": "address",
          "name": "",
          "type": "address"
        }
      ],
      "stateMutability": "view",
      "type": "function",
      "constant": true
    },
    {
      "inputs": [
        {
          "internalType": "uint256",
          "name": "tokenId",
          "type": "uint256"
        }
      ],
      "name": "ownerOf",
      "outputs": [
        {
          "internalType": "address",
          "name": "",
          "type": "address"
        }
      ],
      "stateMutability": "view",
      "type": "function",
      "constant": true
    },
    {
      "inputs": [],
      "name": "renounceOwnership",
      "outputs": [],
      "stateMutability": "nonpayable",
      "type": "function"
    },
    {
      "inputs": [
        {
          "internalType": "address",
          "name": "from",
          "type": "address"
        },
        {
          "internalType": "address",
          "name": "to",
          "type": "address"
        },
        {
          "internalType": "uint256",
          "name": "tokenId",
          "type": "uint256"
        }
      ],
      "name": "safeTransferFrom",
      "outputs": [],
      "stateMutability": "nonpayable",
      "type": "function"
    },
    {
      "inputs": [
        {
          "internalType": "address",
          "name": "from",
          "type": "address"
        },
        {
          "internalType": "address",
          "name": "to",
          "type": "address"
        },
        {
          "internalType": "uint256",
          "name": "tokenId",
          "type": "uint256"
        },
        {
          "internalType": "bytes",
          "name": "_data",
          "type": "bytes"
        }
      ],
      "name": "safeTransferFrom",
      "outputs": [],
      "stateMutability": "nonpayable",
      "type": "function"
    },
    {
      "inputs": [
        {
          "internalType": "address",
          "name": "operator",
          "type": "address"
        },
        {
          "internalType": "bool",
          "name": "approved",
          "type": "bool"
        }
      ],
      "name": "setApprovalForAll",
      "outputs": [],
      "stateMutability": "nonpayable",
      "type": "function"
    },
    {
      "inputs": [
        {
          "internalType": "bytes4",
          "name": "interfaceId",
          "type": "bytes4"
        }
      ],
      "name": "supportsInterface",
      "outputs": [
        {
          "internalType": "bool",
          "name": "",
          "type": "bool"
        }
      ],
      "stateMutability": "view",
      "type": "function",
      "constant": true
    },
    {
      "inputs": [],
      "name": "symbol",
      "outputs": [
        {
          "internalType": "string",
          "name": "",
          "type": "string"
        }
      ],
      "stateMutability": "view",
      "type": "function",
      "constant": true
    },
    {
      "inputs": [
        {
          "internalType": "uint256",
          "name": "tokenId",
          "type": "uint256"
        }
      ],
      "name": "tokenURI",
      "outputs": [
        {
          "internalType": "string",
          "name": "",
          "type": "string"
        }
      ],
      "stateMutability": "view",
      "type": "function",
      "constant": true
    },
    {
      "inputs": [
        {
          "internalType": "address",
          "name": "from",
          "type": "address"
        },
        {
          "internalType": "address",
          "name": "to",
          "type": "address"
        },
        {
          "internalType": "uint256",
          "name": "tokenId",
          "type": "uint256"
        }
      ],
      "name": "transferFrom",
      "outputs": [],
      "stateMutability": "nonpayable",
      "type": "function"
    },
    {
      "inputs": [
        {
          "internalType": "address",
          "name": "newOwner",
          "type": "address"
        }
      ],
      "name": "transferOwnership",
      "outputs": [],
      "stateMutability": "nonpayable",
      "type": "function"
    },
    {
      "inputs": [
        {
          "internalType": "string",
          "name": "tokenURI",
          "type": "string"
        }
      ],
      "name": "mintNFT",
      "outputs": [
        {
          "internalType": "uint256",
          "name": "",
          "type": "uint256"
        }
      ],
      "stateMutability": "nonpayable",
      "type": "function"
    }
  ],
  "bytecode": "0x60806040523480156200001157600080fd5b506040518060400160405280600681526020017f4d794e46547300000000000000000000000000000000000000000000000000008152506040518060400160405280600481526020017f4d4e465400000000000000000000000000000000000000000000000000000000815250816000908051906020019062000096929190620001a6565b508060019080519060200190620000af929190620001a6565b505050620000d2620000c6620000d860201b60201c565b620000e060201b60201c565b620002bb565b600033905090565b6000600760009054906101000a900473ffffffffffffffffffffffffffffffffffffffff16905081600760006101000a81548173ffffffffffffffffffffffffffffffffffffffff021916908373ffffffffffffffffffffffffffffffffffffffff1602179055508173ffffffffffffffffffffffffffffffffffffffff168173ffffffffffffffffffffffffffffffffffffffff167f8be0079c531659141344cd1fd0a4f28419497f9722a3daafe3b4186f6b6457e060405160405180910390a35050565b828054620001b49062000256565b90600052602060002090601f016020900481019282620001d8576000855562000224565b82601f10620001f357805160ff191683800117855562000224565b8280016001018555821562000224579182015b828111156200022357825182559160200191906001019062000206565b5b50905062000233919062000237565b5090565b5b808211156200025257600081600090555060010162000238565b5090565b600060028204905060018216806200026f57607f821691505b602082108114156200028657620002856200028c565b5b50919050565b7f4e487b7100000000000000000000000000000000000000000000000000000000600052602260045260246000fd5b61300c80620002cb6000396000f3fe608060405234801561001057600080fd5b506004361061010b5760003560e01c8063715018a6116100a2578063b88d4fde11610071578063b88d4fde146102a4578063c87b56dd146102c0578063e985e9c5146102f0578063f2fde38b14610320578063fb37e8831461033c5761010b565b8063715018a6146102425780638da5cb5b1461024c57806395d89b411461026a578063a22cb465146102885761010b565b806323b872dd116100de57806323b872dd146101aa57806342842e0e146101c65780636352211e146101e257806370a08231146102125761010b565b806301ffc9a71461011057806306fdde0314610140578063081812fc1461015e578063095ea7b31461018e575b600080fd5b61012a60048036038101906101259190611f23565b61036c565b60405161013791906123c4565b60405180910390f35b61014861044e565b60405161015591906123df565b60405180910390f35b61017860048036038101906101739190611fc6565b6104e0565b604051610185919061235d565b60405180910390f35b6101a860048036038101906101a39190611ee3565b610565565b005b6101c460048036038101906101bf9190611dcd565b61067d565b005b6101e060048036038101906101db9190611dcd565b6106dd565b005b6101fc60048036038101906101f79190611fc6565b6106fd565b604051610209919061235d565b60405180910390f35b61022c60048036038101906102279190611d60565b6107af565b6040516102399190612641565b60405180910390f35b61024a610867565b005b6102546108ef565b604051610261919061235d565b60405180910390f35b610272610919565b60405161027f91906123df565b60405180910390f35b6102a2600480360381019061029d9190611ea3565b6109ab565b005b6102be60048036038101906102b99190611e20565b6109c1565b005b6102da60048036038101906102d59190611fc6565b610a23565b6040516102e791906123df565b60405180910390f35b61030a60048036038101906103059190611d8d565b610b75565b60405161031791906123c4565b60405180910390f35b61033a60048036038101906103359190611d60565b610c09565b005b61035660048036038101906103519190611f7d565b610d01565b6040516103639190612641565b60405180910390f35b60007f80ac58cd000000000000000000000000000000000000000000000000000000007bffffffffffffffffffffffffffffffffffffffffffffffffffffffff1916827bffffffffffffffffffffffffffffffffffffffffffffffffffffffff1916148061043757507f5b5e139f000000000000000000000000000000000000000000000000000000007bffffffffffffffffffffffffffffffffffffffffffffffffffffffff1916827bffffffffffffffffffffffffffffffffffffffffffffffffffffffff1916145b80610447575061044682610db4565b5b9050919050565b60606000805461045d90612897565b80601f016020809104026020016040519081016040528092919081815260200182805461048990612897565b80156104d65780601f106104ab576101008083540402835291602001916104d6565b820191906000526020600020905b8154815290600101906020018083116104b957829003601f168201915b5050505050905090565b60006104eb82610e1e565b61052a576040517f08c379a0000000000000000000000000000000000000000000000000000000008152600401610521906125a1565b60405180910390fd5b6004600083815260200190815260200160002060009054906101000a900473ffffffffffffffffffffffffffffffffffffffff169050919050565b6000610570826106fd565b90508073ffffffffffffffffffffffffffffffffffffffff168373ffffffffffffffffffffffffffffffffffffffff1614156105e1576040517f08c379a00000000000000000000000000000000000000000000000000000000081526004016105d890612601565b60405180910390fd5b8073ffffffffffffffffffffffffffffffffffffffff16610600610e8a565b73ffffffffffffffffffffffffffffffffffffffff16148061062f575061062e81610629610e8a565b610b75565b5b61066e576040517f08c379a0000000000000000000000000000000000000000000000000000000008152600401610665906124e1565b60405180910390fd5b6106788383610e92565b505050565b61068e610688610e8a565b82610f4b565b6106cd576040517f08c379a00000000000000000000000000000000000000000000000000000000081526004016106c490612621565b60405180910390fd5b6106d8838383611029565b505050565b6106f8838383604051806020016040528060008152506109c1565b505050565b6000806002600084815260200190815260200160002060009054906101000a900473ffffffffffffffffffffffffffffffffffffffff169050600073ffffffffffffffffffffffffffffffffffffffff168173ffffffffffffffffffffffffffffffffffffffff1614156107a6576040517f08c379a000000000000000000000000000000000000000000000000000000000815260040161079d90612521565b60405180910390fd5b80915050919050565b60008073ffffffffffffffffffffffffffffffffffffffff168273ffffffffffffffffffffffffffffffffffffffff161415610820576040517f08c379a000000000000000000000000000000000000000000000000000000000815260040161081790612501565b60405180910390fd5b600360008373ffffffffffffffffffffffffffffffffffffffff1673ffffffffffffffffffffffffffffffffffffffff168152602001908152602001600020549050919050565b61086f610e8a565b73ffffffffffffffffffffffffffffffffffffffff1661088d6108ef565b73ffffffffffffffffffffffffffffffffffffffff16146108e3576040517f08c379a00000000000000000000000000000000000000000000000000000000081526004016108da906125c1565b60405180910390fd5b6108ed6000611290565b565b6000600760009054906101000a900473ffffffffffffffffffffffffffffffffffffffff16905090565b60606001805461092890612897565b80601f016020809104026020016040519081016040528092919081815260200182805461095490612897565b80156109a15780601f10610976576101008083540402835291602001916109a1565b820191906000526020600020905b81548152906001019060200180831161098457829003601f168201915b5050505050905090565b6109bd6109b6610e8a565b8383611356565b5050565b6109d26109cc610e8a565b83610f4b565b610a11576040517f08c379a0000000000000000000000000000000000000000000000000000000008152600401610a0890612621565b60405180910390fd5b610a1d848484846114c3565b50505050565b6060610a2e82610e1e565b610a6d576040517f08c379a0000000000000000000000000000000000000000000000000000000008152600401610a6490612581565b60405180910390fd5b6000600660008481526020019081526020016000208054610a8d90612897565b80601f0160208091040260200160405190810160405280929190818152602001828054610ab990612897565b8015610b065780601f10610adb57610100808354040283529160200191610b06565b820191906000526020600020905b815481529060010190602001808311610ae957829003601f168201915b505050505090506000610b1761151f565b9050600081511415610b2d578192505050610b70565b600082511115610b62578082604051602001610b4a929190612339565b60405160208183030381529060405292505050610b70565b610b6b84611536565b925050505b919050565b6000600560008473ffffffffffffffffffffffffffffffffffffffff1673ffffffffffffffffffffffffffffffffffffffff16815260200190815260200160002060008373ffffffffffffffffffffffffffffffffffffffff1673ffffffffffffffffffffffffffffffffffffffff16815260200190815260200160002060009054906101000a900460ff16905092915050565b610c11610e8a565b73ffffffffffffffffffffffffffffffffffffffff16610c2f6108ef565b73ffffffffffffffffffffffffffffffffffffffff1614610c85576040517f08c379a0000000000000000000000000000000000000000000000000000000008152600401610c7c906125c1565b60405180910390fd5b600073ffffffffffffffffffffffffffffffffffffffff168173ffffffffffffffffffffffffffffffffffffffff161415610cf5576040517f08c379a0000000000000000000000000000000000000000000000000000000008152600401610cec90612421565b60405180910390fd5b610cfe81611290565b50565b6000610d0b610e8a565b73ffffffffffffffffffffffffffffffffffffffff16610d296108ef565b73ffffffffffffffffffffffffffffffffffffffff1614610d7f576040517f08c379a0000000000000000000000000000000000000000000000000000000008152600401610d76906125c1565b60405180910390fd5b610d8960086115dd565b6000610d9560086115f3565b9050610da13382611601565b610dab81846117db565b80915050919050565b60007f01ffc9a7000000000000000000000000000000000000000000000000000000007bffffffffffffffffffffffffffffffffffffffffffffffffffffffff1916827bffffffffffffffffffffffffffffffffffffffffffffffffffffffff1916149050919050565b60008073ffffffffffffffffffffffffffffffffffffffff166002600084815260200190815260200160002060009054906101000a900473ffffffffffffffffffffffffffffffffffffffff1673ffffffffffffffffffffffffffffffffffffffff1614159050919050565b600033905090565b816004600083815260200190815260200160002060006101000a81548173ffffffffffffffffffffffffffffffffffffffff021916908373ffffffffffffffffffffffffffffffffffffffff160217905550808273ffffffffffffffffffffffffffffffffffffffff16610f05836106fd565b73ffffffffffffffffffffffffffffffffffffffff167f8c5be1e5ebec7d5bd14f71427d1e84f3dd0314c0f7b2291e5b200ac8c7c3b92560405160405180910390a45050565b6000610f5682610e1e565b610f95576040517f08c379a0000000000000000000000000000000000000000000000000000000008152600401610f8c906124c1565b60405180910390fd5b6000610fa0836106fd565b90508073ffffffffffffffffffffffffffffffffffffffff168473ffffffffffffffffffffffffffffffffffffffff161480610fe25750610fe18185610b75565b5b8061102057508373ffffffffffffffffffffffffffffffffffffffff16611008846104e0565b73ffffffffffffffffffffffffffffffffffffffff16145b91505092915050565b8273ffffffffffffffffffffffffffffffffffffffff16611049826106fd565b73ffffffffffffffffffffffffffffffffffffffff161461109f576040517f08c379a000000000000000000000000000000000000000000000000000000000815260040161109690612441565b60405180910390fd5b600073ffffffffffffffffffffffffffffffffffffffff168273ffffffffffffffffffffffffffffffffffffffff16141561110f576040517f08c379a000000000000000000000000000000000000000000000000000000000815260040161110690612481565b60405180910390fd5b61111a83838361184f565b611125600082610e92565b6001600360008573ffffffffffffffffffffffffffffffffffffffff1673ffffffffffffffffffffffffffffffffffffffff168152602001908152602001600020600082825461117591906127ad565b925050819055506001600360008473ffffffffffffffffffffffffffffffffffffffff1673ffffffffffffffffffffffffffffffffffffffff16815260200190815260200160002060008282546111cc9190612726565b92505081905550816002600083815260200190815260200160002060006101000a81548173ffffffffffffffffffffffffffffffffffffffff021916908373ffffffffffffffffffffffffffffffffffffffff160217905550808273ffffffffffffffffffffffffffffffffffffffff168473ffffffffffffffffffffffffffffffffffffffff167fddf252ad1be2c89b69c2b068fc378daa952ba7f163c4a11628f55a4df523b3ef60405160405180910390a461128b838383611854565b505050565b6000600760009054906101000a900473ffffffffffffffffffffffffffffffffffffffff16905081600760006101000a81548173ffffffffffffffffffffffffffffffffffffffff021916908373ffffffffffffffffffffffffffffffffffffffff1602179055508173ffffffffffffffffffffffffffffffffffffffff168173ffffffffffffffffffffffffffffffffffffffff167f8be0079c531659141344cd1fd0a4f28419497f9722a3daafe3b4186f6b6457e060405160405180910390a35050565b8173ffffffffffffffffffffffffffffffffffffffff168373ffffffffffffffffffffffffffffffffffffffff1614156113c5576040517f08c379a00000000000000000000000000000000000000000000000000000000081526004016113bc906124a1565b60405180910390fd5b80600560008573ffffffffffffffffffffffffffffffffffffffff1673ffffffffffffffffffffffffffffffffffffffff16815260200190815260200160002060008473ffffffffffffffffffffffffffffffffffffffff1673ffffffffffffffffffffffffffffffffffffffff16815260200190815260200160002060006101000a81548160ff0219169083151502179055508173ffffffffffffffffffffffffffffffffffffffff168373ffffffffffffffffffffffffffffffffffffffff167f17307eab39ab6107e8899845ad3d59bd9653f200f220920489ca2b5937696c31836040516114b691906123c4565b60405180910390a3505050565b6114ce848484611029565b6114da84848484611859565b611519576040517f08c379a000000000000000000000000000000000000000000000000000000000815260040161151090612401565b60405180910390fd5b50505050565b606060405180602001604052806000815250905090565b606061154182610e1e565b611580576040517f08c379a0000000000000000000000000000000000000000000000000000000008152600401611577906125e1565b60405180910390fd5b600061158a61151f565b905060008151116115aa57604051806020016040528060008152506115d5565b806115b4846119f0565b6040516020016115c5929190612339565b6040516020818303038152906040525b915050919050565b6001816000016000828254019250508190555050565b600081600001549050919050565b600073ffffffffffffffffffffffffffffffffffffffff168273ffffffffffffffffffffffffffffffffffffffff161415611671576040517f08c379a000000000000000000000000000000000000000000000000000000000815260040161166890612561565b60405180910390fd5b61167a81610e1e565b156116ba576040517f08c379a00000000000000000000000000000000000000000000000000000000081526004016116b190612461565b60405180910390fd5b6116c66000838361184f565b6001600360008473ffffffffffffffffffffffffffffffffffffffff1673ffffffffffffffffffffffffffffffffffffffff16815260200190815260200160002060008282546117169190612726565b92505081905550816002600083815260200190815260200160002060006101000a81548173ffffffffffffffffffffffffffffffffffffffff021916908373ffffffffffffffffffffffffffffffffffffffff160217905550808273ffffffffffffffffffffffffffffffffffffffff16600073ffffffffffffffffffffffffffffffffffffffff167fddf252ad1be2c89b69c2b068fc378daa952ba7f163c4a11628f55a4df523b3ef60405160405180910390a46117d760008383611854565b5050565b6117e482610e1e565b611823576040517f08c379a000000000000000000000000000000000000000000000000000000000815260040161181a90612541565b60405180910390fd5b8060066000848152602001908152602001600020908051906020019061184a929190611b74565b505050565b505050565b505050565b600061187a8473ffffffffffffffffffffffffffffffffffffffff16611b51565b156119e3578373ffffffffffffffffffffffffffffffffffffffff1663150b7a026118a3610e8a565b8786866040518563ffffffff1660e01b81526004016118c59493929190612378565b602060405180830381600087803b1580156118df57600080fd5b505af192505050801561191057506040513d601f19601f8201168201806040525081019061190d9190611f50565b60015b611993573d8060008114611940576040519150601f19603f3d011682016040523d82523d6000602084013e611945565b606091505b5060008151141561198b576040517f08c379a000000000000000000000000000000000000000000000000000000000815260040161198290612401565b60405180910390fd5b805181602001fd5b63150b7a0260e01b7bffffffffffffffffffffffffffffffffffffffffffffffffffffffff1916817bffffffffffffffffffffffffffffffffffffffffffffffffffffffff1916149150506119e8565b600190505b949350505050565b60606000821415611a38576040518060400160405280600181526020017f30000000000000000000000000000000000000000000000000000000000000008152509050611b4c565b600082905060005b60008214611a6a578080611a53906128fa565b915050600a82611a63919061277c565b9150611a40565b60008167ffffffffffffffff811115611a8657611a85612a30565b5b6040519080825280601f01601f191660200182016040528015611ab85781602001600182028036833780820191505090505b5090505b60008514611b4557600182611ad191906127ad565b9150600a85611ae09190612943565b6030611aec9190612726565b60f81b818381518110611b0257611b01612a01565b5b60200101907effffffffffffffffffffffffffffffffffffffffffffffffffffffffffffff1916908160001a905350600a85611b3e919061277c565b9450611abc565b8093505050505b919050565b6000808273ffffffffffffffffffffffffffffffffffffffff163b119050919050565b828054611b8090612897565b90600052602060002090601f016020900481019282611ba25760008555611be9565b82601f10611bbb57805160ff1916838001178555611be9565b82800160010185558215611be9579182015b82811115611be8578251825591602001919060010190611bcd565b5b509050611bf69190611bfa565b5090565b5b80821115611c13576000816000905550600101611bfb565b5090565b6000611c2a611c2584612681565b61265c565b905082815260208101848484011115611c4657611c45612a64565b5b611c51848285612855565b509392505050565b6000611c6c611c67846126b2565b61265c565b905082815260208101848484011115611c8857611c87612a64565b5b611c93848285612855565b509392505050565b600081359050611caa81612f7a565b92915050565b600081359050611cbf81612f91565b92915050565b600081359050611cd481612fa8565b92915050565b600081519050611ce981612fa8565b92915050565b600082601f830112611d0457611d03612a5f565b5b8135611d14848260208601611c17565b91505092915050565b600082601f830112611d3257611d31612a5f565b5b8135611d42848260208601611c59565b91505092915050565b600081359050611d5a81612fbf565b92915050565b600060208284031215611d7657611d75612a6e565b5b6000611d8484828501611c9b565b91505092915050565b60008060408385031215611da457611da3612a6e565b5b6000611db285828601611c9b565b9250506020611dc385828601611c9b565b9150509250929050565b600080600060608486031215611de657611de5612a6e565b5b6000611df486828701611c9b565b9350506020611e0586828701611c9b565b9250506040611e1686828701611d4b565b9150509250925092565b60008060008060808587031215611e3a57611e39612a6e565b5b6000611e4887828801611c9b565b9450506020611e5987828801611c9b565b9350506040611e6a87828801611d4b565b925050606085013567ffffffffffffffff811115611e8b57611e8a612a69565b5b611e9787828801611cef565b91505092959194509250565b60008060408385031215611eba57611eb9612a6e565b5b6000611ec885828601611c9b565b9250506020611ed985828601611cb0565b9150509250929050565b60008060408385031215611efa57611ef9612a6e565b5b6000611f0885828601611c9b565b9250506020611f1985828601611d4b565b9150509250929050565b600060208284031215611f3957611f38612a6e565b5b6000611f4784828501611cc5565b91505092915050565b600060208284031215611f6657611f65612a6e565b5b6000611f7484828501611cda565b91505092915050565b600060208284031215611f9357611f92612a6e565b5b600082013567ffffffffffffffff811115611fb157611fb0612a69565b5b611fbd84828501611d1d565b91505092915050565b600060208284031215611fdc57611fdb612a6e565b5b6000611fea84828501611d4b565b91505092915050565b611ffc816127e1565b82525050565b61200b816127f3565b82525050565b600061201c826126e3565b61202681856126f9565b9350612036818560208601612864565b61203f81612a73565b840191505092915050565b6000612055826126ee565b61205f818561270a565b935061206f818560208601612864565b61207881612a73565b840191505092915050565b600061208e826126ee565b612098818561271b565b93506120a8818560208601612864565b80840191505092915050565b60006120c160328361270a565b91506120cc82612a84565b604082019050919050565b60006120e460268361270a565b91506120ef82612ad3565b604082019050919050565b600061210760258361270a565b915061211282612b22565b604082019050919050565b600061212a601c8361270a565b915061213582612b71565b602082019050919050565b600061214d60248361270a565b915061215882612b9a565b604082019050919050565b600061217060198361270a565b915061217b82612be9565b602082019050919050565b6000612193602c8361270a565b915061219e82612c12565b604082019050919050565b60006121b660388361270a565b91506121c182612c61565b604082019050919050565b60006121d9602a8361270a565b91506121e482612cb0565b604082019050919050565b60006121fc60298361270a565b915061220782612cff565b604082019050919050565b600061221f602e8361270a565b915061222a82612d4e565b604082019050919050565b600061224260208361270a565b915061224d82612d9d565b602082019050919050565b600061226560318361270a565b915061227082612dc6565b604082019050919050565b6000612288602c8361270a565b915061229382612e15565b604082019050919050565b60006122ab60208361270a565b91506122b682612e64565b602082019050919050565b60006122ce602f8361270a565b91506122d982612e8d565b604082019050919050565b60006122f160218361270a565b91506122fc82612edc565b604082019050919050565b600061231460318361270a565b915061231f82612f2b565b604082019050919050565b6123338161284b565b82525050565b60006123458285612083565b91506123518284612083565b91508190509392505050565b60006020820190506123726000830184611ff3565b92915050565b600060808201905061238d6000830187611ff3565b61239a6020830186611ff3565b6123a7604083018561232a565b81810360608301526123b98184612011565b905095945050505050565b60006020820190506123d96000830184612002565b92915050565b600060208201905081810360008301526123f9818461204a565b905092915050565b6000602082019050818103600083015261241a816120b4565b9050919050565b6000602082019050818103600083015261243a816120d7565b9050919050565b6000602082019050818103600083015261245a816120fa565b9050919050565b6000602082019050818103600083015261247a8161211d565b9050919050565b6000602082019050818103600083015261249a81612140565b9050919050565b600060208201905081810360008301526124ba81612163565b9050919050565b600060208201905081810360008301526124da81612186565b9050919050565b600060208201905081810360008301526124fa816121a9565b9050919050565b6000602082019050818103600083015261251a816121cc565b9050919050565b6000602082019050818103600083015261253a816121ef565b9050919050565b6000602082019050818103600083015261255a81612212565b9050919050565b6000602082019050818103600083015261257a81612235565b9050919050565b6000602082019050818103600083015261259a81612258565b9050919050565b600060208201905081810360008301526125ba8161227b565b9050919050565b600060208201905081810360008301526125da8161229e565b9050919050565b600060208201905081810360008301526125fa816122c1565b9050919050565b6000602082019050818103600083015261261a816122e4565b9050919050565b6000602082019050818103600083015261263a81612307565b9050919050565b6000602082019050612656600083018461232a565b92915050565b6000612666612677565b905061267282826128c9565b919050565b6000604051905090565b600067ffffffffffffffff82111561269c5761269b612a30565b5b6126a582612a73565b9050602081019050919050565b600067ffffffffffffffff8211156126cd576126cc612a30565b5b6126d682612a73565b9050602081019050919050565b600081519050919050565b600081519050919050565b600082825260208201905092915050565b600082825260208201905092915050565b600081905092915050565b60006127318261284b565b915061273c8361284b565b9250827fffffffffffffffffffffffffffffffffffffffffffffffffffffffffffffffff0382111561277157612770612974565b5b828201905092915050565b60006127878261284b565b91506127928361284b565b9250826127a2576127a16129a3565b5b828204905092915050565b60006127b88261284b565b91506127c38361284b565b9250828210156127d6576127d5612974565b5b828203905092915050565b60006127ec8261282b565b9050919050565b60008115159050919050565b60007fffffffff0000000000000000000000000000000000000000000000000000000082169050919050565b600073ffffffffffffffffffffffffffffffffffffffff82169050919050565b6000819050919050565b82818337600083830152505050565b60005b83811015612882578082015181840152602081019050612867565b83811115612891576000848401525b50505050565b600060028204905060018216806128af57607f821691505b602082108114156128c3576128c26129d2565b5b50919050565b6128d282612a73565b810181811067ffffffffffffffff821117156128f1576128f0612a30565b5b80604052505050565b60006129058261284b565b91507fffffffffffffffffffffffffffffffffffffffffffffffffffffffffffffffff82141561293857612937612974565b5b600182019050919050565b600061294e8261284b565b91506129598361284b565b925082612969576129686129a3565b5b828206905092915050565b7f4e487b7100000000000000000000000000000000000000000000000000000000600052601160045260246000fd5b7f4e487b7100000000000000000000000000000000000000000000000000000000600052601260045260246000fd5b7f4e487b7100000000000000000000000000000000000000000000000000000000600052602260045260246000fd5b7f4e487b7100000000000000000000000000000000000000000000000000000000600052603260045260246000fd5b7f4e487b7100000000000000000000000000000000000000000000000000000000600052604160045260246000fd5b600080fd5b600080fd5b600080fd5b600080fd5b6000601f19601f8301169050919050565b7f4552433732313a207472616e7366657220746f206e6f6e20455243373231526560008201527f63656976657220696d706c656d656e7465720000000000000000000000000000602082015250565b7f4f776e61626c653a206e6577206f776e657220697320746865207a65726f206160008201527f6464726573730000000000000000000000000000000000000000000000000000602082015250565b7f4552433732313a207472616e736665722066726f6d20696e636f72726563742060008201527f6f776e6572000000000000000000000000000000000000000000000000000000602082015250565b7f4552433732313a20746f6b656e20616c7265616479206d696e74656400000000600082015250565b7f4552433732313a207472616e7366657220746f20746865207a65726f2061646460008201527f7265737300000000000000000000000000000000000000000000000000000000602082015250565b7f4552433732313a20617070726f766520746f2063616c6c657200000000000000600082015250565b7f4552433732313a206f70657261746f7220717565727920666f72206e6f6e657860008201527f697374656e7420746f6b656e0000000000000000000000000000000000000000602082015250565b7f4552433732313a20617070726f76652063616c6c6572206973206e6f74206f7760008201527f6e6572206e6f7220617070726f76656420666f7220616c6c0000000000000000602082015250565b7f4552433732313a2062616c616e636520717565727920666f7220746865207a6560008201527f726f206164647265737300000000000000000000000000000000000000000000602082015250565b7f4552433732313a206f776e657220717565727920666f72206e6f6e657869737460008201527f656e7420746f6b656e0000000000000000000000000000000000000000000000602082015250565b7f45524337323155524953746f726167653a2055524920736574206f66206e6f6e60008201527f6578697374656e7420746f6b656e000000000000000000000000000000000000602082015250565b7f4552433732313a206d696e7420746f20746865207a65726f2061646472657373600082015250565b7f45524337323155524953746f726167653a2055524920717565727920666f722060008201527f6e6f6e6578697374656e7420746f6b656e000000000000000000000000000000602082015250565b7f4552433732313a20617070726f76656420717565727920666f72206e6f6e657860008201527f697374656e7420746f6b656e0000000000000000000000000000000000000000602082015250565b7f4f776e61626c653a2063616c6c6572206973206e6f7420746865206f776e6572600082015250565b7f4552433732314d657461646174613a2055524920717565727920666f72206e6f60008201527f6e6578697374656e7420746f6b656e0000000000000000000000000000000000602082015250565b7f4552433732313a20617070726f76616c20746f2063757272656e74206f776e6560008201527f7200000000000000000000000000000000000000000000000000000000000000602082015250565b7f4552433732313a207472616e736665722063616c6c6572206973206e6f74206f60008201527f776e6572206e6f7220617070726f766564000000000000000000000000000000602082015250565b612f83816127e1565b8114612f8e57600080fd5b50565b612f9a816127f3565b8114612fa557600080fd5b50565b612fb1816127ff565b8114612fbc57600080fd5b50565b612fc88161284b565b8114612fd357600080fd5b5056fea264697066735822122010b3000fe42b77f1b8e03a8bec89da059b8c6aec034f051b4d5237e5afc3e13b64736f6c63430008070033",
  "immutableReferences": {},
  "source": "//Contract based on [https://docs.openzeppelin.com/contracts/3.x/erc721](https://docs.openzeppelin.com/contracts/3.x/erc721)\n// SPDX-License-Identifier: MIT\npragma solidity ^0.8.7;\n\nimport \"@openzeppelin/contracts/token/ERC721/ERC721.sol\";\nimport \"@openzeppelin/contracts/utils/Counters.sol\";\nimport \"@openzeppelin/contracts/access/Ownable.sol\";\nimport \"@openzeppelin/contracts/token/ERC721/extensions/ERC721URIStorage.sol\";\n\ncontract MyNFTs is ERC721URIStorage, Ownable {\n    using Counters for Counters.Counter;\n    Counters.Counter private _tokenIds;\n\n    constructor() public ERC721(\"MyNFTs\", \"MNFT\") {}\n\n    function mintNFT(string memory tokenURI)\n        public onlyOwner\n        returns (uint256)\n    {\n        _tokenIds.increment();\n\n        uint256 newItemId = _tokenIds.current();\n        _mint(msg.sender, newItemId);\n        _setTokenURI(newItemId, tokenURI);\n\n        return newItemId;\n    }\n}",
  "sourcePath": "/home/wavescats/solidity-study/Truffle  ERC-721  NFT /contracts/MyNFTs.sol",
  "compiler": {
    "name": "solc",
    "version": "0.8.7+commit.e28d00a7.Emscripten.clang"
  },
  "schemaVersion": "3.4.7",
  "updatedAt": "2022-06-10T05:54:36.540Z",
  "networkType": "ethereum",
  "devdoc": {
    "kind": "dev",
    "methods": {
      "approve(address,uint256)": {
        "details": "See {IERC721-approve}."
      },
      "balanceOf(address)": {
        "details": "See {IERC721-balanceOf}."
      },
      "getApproved(uint256)": {
        "details": "See {IERC721-getApproved}."
      },
      "isApprovedForAll(address,address)": {
        "details": "See {IERC721-isApprovedForAll}."
      },
      "name()": {
        "details": "See {IERC721Metadata-name}."
      },
      "owner()": {
        "details": "Returns the address of the current owner."
      },
      "ownerOf(uint256)": {
        "details": "See {IERC721-ownerOf}."
      },
      "renounceOwnership()": {
        "details": "Leaves the contract without owner. It will not be possible to call `onlyOwner` functions anymore. Can only be called by the current owner. NOTE: Renouncing ownership will leave the contract without an owner, thereby removing any functionality that is only available to the owner."
      },
      "safeTransferFrom(address,address,uint256)": {
        "details": "See {IERC721-safeTransferFrom}."
      },
      "safeTransferFrom(address,address,uint256,bytes)": {
        "details": "See {IERC721-safeTransferFrom}."
      },
      "setApprovalForAll(address,bool)": {
        "details": "See {IERC721-setApprovalForAll}."
      },
      "supportsInterface(bytes4)": {
        "details": "See {IERC165-supportsInterface}."
      },
      "symbol()": {
        "details": "See {IERC721Metadata-symbol}."
      },
      "tokenURI(uint256)": {
        "details": "See {IERC721Metadata-tokenURI}."
      },
      "transferFrom(address,address,uint256)": {
        "details": "See {IERC721-transferFrom}."
      },
      "transferOwnership(address)": {
        "details": "Transfers ownership of the contract to a new account (`newOwner`). Can only be called by the current owner."
      }
    },
    "version": 1
  },
  "userdoc": {
    "kind": "user",
    "methods": {},
    "version": 1
  }
}